S01A0000536D61727420486F6D652050726F6A6563742E7372656363
S11300000C942A000C94EC000C94C3000C9434005F
S11300100C9434000C9434000C9434000C9434008C
S11300200C9434000C9434000C9434000C9434007C
S11300300C9434000C9434000C9434000C9434006C
S11300400C9434000C9434000C9434000C9434005C
S11300500C94340011241FBECFE5D8E0DEBFCDBF21
S11300600E9469010C94F0010C94000087B1806433
S113007087B986B1806886B986B1846086B90895E7
S113008097B1907E892B87B986B1806486B9349BF9
S1130090FECF83E08A95F1F7000024B185B190E0AA
S11300A0982F8827820F911D08958130910531F48E
S11300B02AB328602ABB2BB328602BBB823091055E
S11300C031F42AB320612ABB2BB320612BBB8330CC
S11300D0910531F42AB320622ABB2BB320622BBBD7
S11300E08430910531F42AB320642ABB2BB32064F5
S11300F02BBB059731F48AB380688ABB8BB38068C5
S11301008BBB08958130910531F42AB3277F2ABB34
S11301102BB3277F2BBB8230910531F42AB32F7E7A
S11301202ABB2BB32F7E2BBB8330910531F42AB32A
S11301302F7D2ABB2BB32F7D2BBB8430910531F44B
S11301402AB32F7B2ABB2BB32F7B2BBB059731F410
S11301508AB38F778ABB8BB38F778BBB089584B3B5
S1130160886184BB85B3886085BB85B38F7E85BB7E
S1130170089584B3886184BB85B3877F85BB85B3C9
S11301808F7E85BB08951F920F920FB60F92112494
S11301902F933F934F938F939F9320E030E00FC0B2
S11301A09BB380E289278BBB4FE986E891E04150FD
S11301B080409040E1F700C000002F5F3F4F2730A0
S11301C0310574F39F918F914F913F912F910F902F
S11301D00FBE0F901F9018951F920F920FB60F929B
S11301E011248F938BB38F7D8BBB8F910F900FBE98
S11301F00F901F9018958FB58E7F8FBD8FB582603D
S11302008FBD8EB588608EBD8EB580618EBD8FB575
S11302108F7B8FBD8FB580688FBD81B3806281BBBA
S113022081B3806881BB08958EB581608EBD8EB523
S113023082608EBD8EB58B7F8EBD0895BC0181E03A
S113024090E00E94C80128EE33E0629FA001639F02
S1130250500D729F500D1124429FC001439F900D79
S1130260529F900D112499230CF40396959587952C
S113027095958795019797BD86BD08950E94FB00CB
S113028082E390E00E941E010E941401089587B346
S11302908F7D87BB87B38F7787BB87B38F7E87BB01
S11302A087B3806487BB86B38F7E86BB8DB1806441
S11302B08DB98DB18F7E8DB98DB181608DB986B3C5
S11302C0806186BB08958FEF8FB9779BFECF8FB186
S11302D008950E9436000E9447010E943E018AB39D
S11302E08B7F8ABB0E946301C82F813021F481E097
S11302F090E00E945500C23021F481E090E00E9419
S11303008200C33021F482E090E00E945500C430A2
S113031021F482E090E00E948200C53021F483E061
S113032090E00E945500C63021F483E090E00E94E2
S11303308200C73021F484E090E00E945500C83068
S113034021F484E090E00E948200C93021F485E029
S113035090E00E945500C11104C085E090E00E9425
S1130360820082E090E00E94400024EF31E0AC0182
S1130370429FC001439F900D529F900D1124843ED3
S11303809F4618F00E94AF00ADCF0E94B900AACFDB
S113039097FB072E16F4009407D077FD09D00E942E
S11303A0DC0107FC05D03EF4909581959F4F08959C
S11303B0709561957F4F0895AA1BBB1B51E107C03F
S11303C0AA1FBB1FA617B70710F0A61BB70B881FE1
S11303D0991F5A95A9F780959095BC01CD01089570
S10703E0F894FFCFBB
S9030000FC
