:100000000C942A000C946A000C9441000C943F005C
:100010000C943F000C943F000C943F000C943F0064
:100020000C943F000C943F000C943F000C943F0054
:100030000C943F000C943F000C943F000C943F0044
:100040000C943F000C943F000C943F000C943F0034
:100050000C943F0011241FBECFE5D8E0DEBFCDBF1A
:1000600011E0A0E6B0E0E2EDF7E002C005900D92ED
:10007000A234B107D9F70E9422020C94E7030C9432
:1000800000001F920F920FB60F9211242F933F93EF
:100090004F938F939F9320E030E00FC09BB380E29B
:1000A00089278BBB4FE986E891E041508040904022
:1000B000E1F700C000002F5F3F4F2730310574F398
:1000C0009F918F914F913F912F910F900FBE0F9065
:1000D0001F9018951F920F920FB60F9211248F93B5
:1000E0008BB38F7D8BBB8F910F900FBE0F901F90A6
:1000F000189584B3816084BB84B3826084BB84B36D
:10010000846084BB84B3886084BB84B38F7E84BBEB
:1001100084B38F7D84BB84B38F7B84BB84B38F77A0
:1001200084BB85B3806185BB85B3806285BB85B3A5
:10013000806485BB85B3806885BB08958130910557
:10014000B9F01CF4892B39F0089582309105E9F05B
:10015000039741F1089585B38E7F85BB85B3826097
:1001600085BB85B3846085BB85B3886085BB0895F6
:1001700085B38D7F85BB85B3816085BB85B3846086
:1001800085BB85B3886085BB089585B38B7F85BBB0
:1001900085B3816085BB85B3826085BB85B388608C
:1001A00085BB089585B3877F85BB85B3816085BB9B
:1001B00085B3826085BB85B3846085BB08950F934A
:1001C0001F93CF9300E010E0CFEF6EC00F5F1F4F83
:1001D00080E090E00E949E009C9904C09C9BFECF12
:1001E000C7E311C09D9904C09D9BFECFC8E30BC01F
:1001F0009E9904C09E9BFECFC9E305C09F9903C092
:100200009F9BFECFCFE281E090E00E949E009C99F0
:1002100004C09C9BFECFC4E311C09D9904C09D9B6C
:10022000FECFC5E30BC09E9904C09E9BFECFC6E3E4
:1002300005C09F9903C09F9BFECFCAE282E090E079
:100240000E949E009C9904C09C9BFECFC1E311C0FC
:100250009D9904C09D9BFECFC2E30BC09E9904C034
:100260009E9BFECFC3E305C09F9903C09F9BFECF1B
:10027000CDE283E090E00E949E009C9904C09C9B8C
:10028000FECFC3E411C09D9904C09D9BFECFC0E387
:100290000BC09E9904C09E9BFECFCDE305C09F99E5
:1002A00003C09F9BFECFCBE2CF3F21F4033011056B
:1002B0000CF48CCF8C2FCF911F910F9108959BB38D
:1002C0009F70282F207F922B9BBB98B3926098BB86
:1002D00098B39B7F98BB98B3986098BB00C0000010
:1002E00098B3977F98BB32E43A95F1F700C02BB3EF
:1002F00030E1839FC0011124922F9F70892B8BBB0B
:1003000088B3886088BB00C0000088B3877F88BB43
:100310008DEE92E00197F1F700C0000008959BB3C5
:100320009F70282F207F922B9BBB98B39D7F98BBFB
:1003300098B39B7F98BB98B3986098BB00C00000AF
:1003400098B3977F98BB32E43A95F1F700C02BB38E
:1003500030E1839FC0011124922F9F70892B8BBBAA
:1003600088B3886088BB00C0000088B3877F88BBE3
:100370008DEE92E00197F1F700C00000089580EC47
:100380000E948F01089581E00E948F01089582E00C
:100390000E948F0108958AB3806F8ABB87B38860FB
:1003A00087BB87B3826087BB87B3846087BB82E0EB
:1003B0000E948F0188E20E948F018CE00E948F01D1
:1003C00086E00E948F0181E00E948F0187E893E11F
:1003D0000197F1F700C0000008950F931F93CF938A
:1003E000DF938C01C0E0D0E003C00E945F01219642
:1003F000F801EC0FFD1F80818111F7CFDF91CF91C4
:100400001F910F91089587B3806B87BB87B38F7B54
:1004100087BB88B3806188BB81E58DB98EB18E7F43
:100420008EB988B38F7E88BB08958FB9779BFECF36
:1004300008952AB128612AB920B5266820BD89B956
:1004400090BD08952FEF89E698E1215080409040BB
:10045000E1F700C000000E94CB010E94790087E60E
:1004600090E00E9419020E94030280E690E00E9440
:10047000ED012FEF83ED90E3215080409040E1F7B4
:1004800000C000000E94C3010E94C7010E946302D5
:1004900080E090E00895CF93CFEF10C00E94DF007E
:1004A000C82F8F3F11F00E945F018FEF0E9415024D
:1004B00083ED90E30197F1F700C00000CF3F71F3A7
:1004C0008C2FCF910895C0E0D0E002C0C0E0D0E012
:1004D000209721F50E94C3010E94C70181E790E0A7
:1004E0000E94ED010E94BF0180E890E00E94ED01B2
:1004F0000E944B02813339F0823341F0833349F05B
:10050000843361F409C0C1E0D0E008C0C2E0D0E0AB
:1005100005C0C3E0D0E002C0C4E0D0E0C130D105E6
:1005200009F06FC00E94C3010E94C7018FE890E0EC
:100530000E94ED010E94BF018EE990E00E94ED0152
:100540000E944B02182F813381F40E94C3010E9444
:10055000C7018FEA90E00E94ED010E94BF018CEB81
:1005600090E00E94ED01C5E0D0E0123381F40E94DA
:10057000C3010E94C7018DEC90E00E94ED010E9432
:10058000BF018CEB90E00E94ED01C6E0D0E0133398
:1005900081F40E94C3010E94C7018AED90E00E948D
:1005A000ED010E94BF018CEB90E00E94ED01C7E0DD
:1005B000D0E0143381F40E94C3010E94C70187EE8A
:1005C00090E00E94ED010E94BF018CEB90E00E9440
:1005D000ED01C8E0D0E0153381F40E94C3010E9410
:1005E000C70184EF90E00E94ED010E94BF018CEBF7
:1005F00090E00E94ED01C9E0D0E0103311F4C0E0BA
:10060000D0E0C530D105E9F40E944B02182F8133A8
:1006100049F481E00E94150287EA91E60197F1F71B
:1006200000C00000123349F482E00E94150287EAFC
:1006300091E60197F1F700C00000103311F4C1E01A
:10064000D0E0C630D105E9F40E944B02182F813367
:1006500049F483E00E94150287EA91E60197F1F7D9
:1006600000C00000123349F484E00E94150287EABA
:1006700091E60197F1F700C00000103311F4C1E0DA
:10068000D0E0C730D105E9F40E944B02182F813326
:1006900049F485E00E94150287EA91E60197F1F797
:1006A00000C00000123349F486E00E94150287EA78
:1006B00091E60197F1F700C00000103311F4C1E09A
:1006C000D0E0C830D105E9F40E944B02182F8133E5
:1006D00049F487E00E94150287EA91E60197F1F755
:1006E00000C00000123349F488E00E94150287EA36
:1006F00091E60197F1F700C00000103311F4C1E05A
:10070000D0E0C930D105E9F40E944B02182F8133A3
:1007100049F489E00E94150287EA91E60197F1F712
:1007200000C00000123349F480E00E94150287EAFD
:1007300091E60197F1F700C00000103311F4C1E019
:10074000D0E0C230D105A1F40E94C3010E94C701CC
:1007500081E091E00E94ED010E94BF0187EC90E0F2
:100760000E94ED010E944B02803311F4C0E0D0E002
:10077000C330D105A1F40E94C3010E94C7018CE0DF
:1007800091E00E94ED010E94BF018DE191E00E9485
:10079000ED010E944B02803311F4C0E0D0E0C43080
:1007A000D10509F095CE0E94C3010E94C7018EE2D7
:1007B00091E00E94ED010E94BF0185E391E00E945B
:1007C000ED010E944B02803309F082CE7FCEF89477
:0207D000FFCF59
:1007D200536D61727420486F6D652050726F6A2E7E
:1007E2000055736572204D6F64652020523A3100C6
:1007F20044696D3A322041433A33207E3A34005202
:10080200313A312052323A322052333A33005234A2
:100812003A342052353A35205265742E3A3000521D
:100822006F6F6D31204C6967687473004F6E3A3197
:10083200204F66663A32205265743A3000526F6F2A
:100842006D32204C696768747300526F6F6D33208C
:100852004C696768747300526F6F6D34204C69671E
:1008620068747300526F6F6D35204C6967687473DA
:100872000044696D6D65723A317E350041697220BE
:10088200436F6E642E204175746F3A31004F6E3A99
:1008920032204F66663A33205265743A300054650E
:1008A2006D703A3400446F6F723A35205265743A73
:0208B200300014
:00000001FF
